:100000000C9416060C9447060C9447060C9447066D
:100010000C9447060C9447060C9447060C9447062C
:100020000C9447060C9447060C9447060C9447061C
:100030000C9447060C9447060C9447060C9447060C
:100040000C9447060C9447060C9447060C944706FC
:100050000C9447060C9447060C9447060C9475358F
:100060000C9447060C94D92E0C94AF2E0C94470692
:100070000C9447060C9447060C9447060C944706CC
:100080000C9447060C9447060C9447060C944706BC
:100090000C9447060C9447060C9447060C944706AC
:1000A0000C9447060C9447060C9447060C9447069C
:1000B0000C9447060C9447060C9447060C9447068C
:1000C0000C9447060C9447060C9447060C9447067C
:1000D0000C9447060C9447060C9447060C9447066C
:1000E0000C944706731277127B127F1283128712C9
:1000F0008B12BD13C413CB13D213D913F113E01316
:10010000F113E71381278427732777277D27BB27E0
:1001100088278C27922796279A27A027A427A827E5
:10012000BB27AE27B227B6270C9477120C94BB27B7
:100130000C941F140C948C270C9473120C94E62DC1
:100140000C9496270C9487120C9488270C945E13B9
:100150000C94612D0C94B6270C9431330C94F41349
:100160000C94CB130C94920F0C948B120C9481274B
:100170000C94302D0C94A8270C943F2D0C949613BE
:100180000C949A270C945A120C94F8130C947F1226
:100190000C9453140C9456120C9483120C94062D48
:1001A0000C94AD300C94601D0C94E8120C94413208
:1001B0000C94F1130C94C4130C94532D0C947327CA
:1001C0000C94D2130C9492120C9456110C943D136F
:1001D0000C9457120C947D270C9471140C94CB3210
:1001E0000C9477270C94B2270C9484270C94910FCD
:1001F0000C9409130C94A5110C94BD130C94A02716
:100200000C9492270C94A4270C945C460C94992D82
:100210000C94E7130C94AE270C947B120C94AC1343
:100220000C94D9130C94E0132E89298F2B02E20031
:10023000E401E510E601E710E870F200EA00EB20C7
:10024000EC3CEDC8E938F1011B1A1A022461255C67
:10025000183619011F88FF051F80FF051F90FF0535
:100260001FD4FF05170536092838FF28283C02004F
:100270000300040005EF060007000801093F010024
:10028000B903FF8357FFFAB30400000606B6012541
:10029000B00168CC0105B10600151C1C83AAC0067C
:1002A0005050013C1E08B4070240002A2A0D783A3B
:1002B00001553601C0350100440200021100FF96CD
:1002C0002900FF32150030009A00100011002000B4
:1002D000100028341200020013004610FF0028000E
:1002E00012001200FF0028001000203413004630D6
:1002F000FF00460030000000310002043200070316
:1003000033000403340004003500010436000707FD
:1003100037000503380010063900100601000001FF
:100320000200000303003010080008080A0008005B
:10033000600000276100010090003E019200000172
:1003400093000001A0000030A3001000070001008E
:1003500007002100070023000700330007003301D6
:1003600000000100FF003200010000010200000750
:100370000300301004000000080002020900000021
:100380000A0000000C0000000D0000000F0000003B
:100390001000000011000700120000001300000010
:1003A000FF00C8001000901611002702FF00320065
:1003B00012001A00FF0032001300001829002A0062
:1003C000FF00320030000000310000003200000069
:1003D0003500060236000808370007003800010221
:1003E000390000003C0000003D000000200000003B
:1003F00021000000500000005100EF0052000000FA
:1004000053003F01600000A7610003006A00000084
:10041000900010009200000093000300950000116E
:100420009700000098000000070033016D617463BD
:1004300068657320746865207475746F7269616C87
:100440002E00416C736F206966207573696E67209A
:1004500074686520627265616B6F75742C20646FBF
:1004600075626C652D636865636B207468617420C8
:10047000616C6C20776972696E67004966207573DC
:10048000696E672074686520627265616B6F757450
:1004900020626F6172642C2069742073686F756CC0
:1004A00064204E4F542062652023646566696E6542
:1004B00064210073686F756C64206170706561728F
:1004C00020696E20746865206C696272617279209F
:1004D0006865616465722028456C65676F6F5F545D
:1004E00046542E68292E00202023646566696E65B7
:1004F000205553455F456C65676F6F5F53484945AD
:100500004C445F50494E4F555400496620757369FD
:100510006E672074686520456C65676F6F20322EAA
:100520003822205446542041726475696E6F2073DE
:100530006869656C642C20746865206C696E653A26
:1005400000556E6B6E6F776E204C43442064726969
:1005500076657220636869703A2000466F756E6434
:1005600020307839333431204C434420647269762A
:10057000657200466F756E642048583833353744CD
:10058000204C43442064726976657200466F756E34
:100590006420494C4939333431204C43442064723F
:1005A0006976657200466F756E642048583833343A
:1005B0003747204C43442064726976657200466F69
:1005C000756E64204C47445034353335204C4344D9
:1005D0002064726976657200466F756E6420494CBE
:1005E0004939333238204C4344206472697665724D
:1005F00000466F756E6420494C4939333235204CC2
:100600004344206472697665720000002000230074
:10061000260029002C002F003200000100000301F9
:100620000601090100000000003E5B4F5B3E3E6B8F
:100630004F6B3E1C3E7C3E1C183C7E3C181C577D7C
:10064000571C1C5E7F5E1C00183C1800FFE7C3E7C8
:10065000FF0018241800FFE7DBE7FF30483A060EDA
:100660002629792926407F050507407F05253F5A21
:100670003CE73C5A7F3E1C1C08081C1C3E7F142291
:100680007F22145F5F005F5F06097F017F0066893C
:10069000956A606060606094A2FFA29408047E0482
:1006A0000810207E201008082A1C08081C2A0808A8
:1006B0001E101010100C1E0C1E0C30383E38300668
:1006C0000E3E0E06000000000000005F0000000764
:1006D000000700147F147F14242A7F2A1223130892
:1006E000646236495620500008070300001C22416E
:1006F000000041221C002A1C7F1C2A08083E080812
:1007000000807030000808080808000060600020C1
:10071000100804023E5149453E00427F40007249A4
:100720004949462141494D331814127F1027454548
:1007300045393C4A4949314121110907364949495E
:1007400036464949291E00001400000040340000CC
:100750000008142241141414141400412214080235
:10076000015909063E415D594E7C1211127C7F49A8
:100770004949363E414141227F4141413E7F4949FD
:1007800049417F090909013E414151737F08080829
:100790007F00417F41002040413F017F08142241FA
:1007A0007F404040407F021C027F7F0408107F3E54
:1007B0004141413E7F090909063E4151215E7F09C1
:1007C000192946264949493203017F01033F404028
:1007D000403F1F2040201F3F4038403F6314081413
:1007E0006303047804036159494D43007F4141414B
:1007F0000204081020004141417F0402010204402C
:1008000040404040000307080020545478407F28AF
:100810004444383844444428384444287F385454A5
:10082000541800087E090218A4A49C787F080404C8
:100830007800447D40002040403D007F1028440067
:1008400000417F40007C047804787C0804047838F8
:1008500044444438FC1824241818242418FC7C0828
:10086000040408485454542404043F44243C4040A5
:10087000207C1C2040201C3C4030403C4428102858
:10088000444C9090907C4464544C440008364100A1
:100890000000770000004136080002010204023C1B
:1008A0002623263C1EA1A161123A4040207A3854EA
:1008B0005455592155557941225454784221555463
:1008C000784020545579400C1E52721239555555B6
:1008D00059395454545939555454580000457C41A1
:1008E0000002457D420001457C407D1211127DF0E1
:1008F000282528F07C545545002054547C547C0A0B
:10090000097F4932494949323A4444443A324A48D3
:1009100048303A4141217A3A42402078009DA0A0D7
:100920007D3D4242423D3D4040403D3C24FF242429
:10093000487E4943662B2FFC2F2BFF0929F620C048
:10094000887E090320545479410000447D41304899
:10095000484A32384040227A007A0A0A727D0D19DC
:10096000317D2629292F28262929292630484D403E
:1009700020380808080808080808382F10C8ACBA3A
:100980002F102834FA00007B000008142A142222B9
:10099000142A14085500550055AA55AA55AAFF5502
:1009A000FF55FF000000FF00101010FF001414148A
:1009B000FF001010FF00FF1010F010F0141414FCD2
:1009C000001414F700FF0000FF00FF1414F404FCEF
:1009D000141417101F10101F101F1414141F0010D0
:1009E0001010F0000000001F101010101F10101049
:1009F00010F010000000FF10101010101010101058
:100A0000FF10000000FF140000FF00FF00001F1097
:100A1000170000FC04F414141710171414F404F451
:100A20000000FF00F714141414141414F700F71442
:100A30001414171410101F101F141414F414101091
:100A4000F010F000001F101F0000001F1400000035
:100A5000FC140000F010F01010FF10FF141414FF2D
:100A6000141010101F00000000F010FFFFFFFFFF28
:100A7000F0F0F0F0F0FFFFFF0000000000FFFF0FBC
:100A80000F0F0F0F3844443844FC4A4A4A347E0260
:100A9000020606027E027E026355494163384444E1
:100AA0003C04407E201E2006027E020299A5E7A596
:100AB000991C2A492A1C4C7201724C304A4D4D3007
:100AC0003048784830BC625A463D3E494949007E2C
:100AD0000101017E2A2A2A2A2A44445F44444051C3
:100AE0004A444040444A51400000FF0103E080FF77
:100AF000000008086B6B083612362436060F090F03
:100B000006000018180000001010003040FF01011E
:100B1000001F01011E00191D1712003C3C3C3C0047
:100B20000000000000002100240027002A002D0002
:100B30003000330001010000040107010A01000038
:100B40000A0B02090C0D0E08070304010000000047
:100B50000000000000000000000000000000000095
:100B60000000000000000000000012111000000052
:100B70000000000000000000000000000000000075
:100B80000000000001021020200808102040102062
:100B90004080020102010804020101020408102041
:100BA000408080402010080402018004020180403F
:100BB00020100804020108040201010204081020A8
:100BC000408001020408102040800000220025001F
:100BD00028002B002E003100340002010000050126
:100BE00008010B01050505050705080808080202AC
:100BF00002020A0A080804040404010101010101B7
:100C000001010303030303030303040707070C0C99
:100C10000C0C0C0C0C0C0202020206060606060660
:100C200006060B0B0B0B0B0B0B0B5C4611241FBEAC
:100C3000CFEFD1E2DEBFCDBF00E00CBF12E0A0E0FD
:100C4000B2E0E4EDFAE900E00BBF02C007900D92BC
:100C5000A03AB107D9F725E0A0EAB2E001C01D92A1
:100C6000A032B207E1F716E0C6E1D6E000E006C028
:100C700021970109802FFE010E94B249C531D10799
:100C800080E00807A9F70E94BF350C94684D0C94CA
:100C900000008F929F92BF92CF92DF92EF92FF92CD
:100CA0000F931F93CF93DF93EC01CB017A01E98D72
:100CB000FA8D50814DA145234083488D411163C574
:100CC0004D89423089F0433021F1413081F5AFEE5A
:100CD000B0E0AD01401B510B4B01AE19BF098901BA
:100CE0009D017B01CA0125C04FEE50E0BA01621B95
:100CF000730B9A01281B390B8FE391E0AC01401B69
:100D0000510B8C010E191F094801D9017A01CB0141
:100D100010C0EFE3F1E0AF01421B530B4F01861A05
:100D2000970AD70198018401C7017A0102C04701DF
:100D3000DB016B8D7C8DFB0150814EA145234083EF
:100D40004091020147784093020140910201409393
:100D500002014EB1477C4EB94EB14EB9A59844B38D
:100D600044BB6D8D7E8DFB0150814FA14523408397
:100D70006D8D7E8DFB0150814BA1452B40834091B1
:100D8000020147784093020140910201486040937C
:100D900002014EB1477C4EB94EB14EB9A598A59A05
:100DA0006D8D7E8DFB0150814FA1452340836D8D5C
:100DB0007E8DFB0150814BA1452B4083492F552748
:100DC00047FD5A95CB8CDC8CF60170816AA1672BAC
:100DD000608360910201677860930201B090020124
:100DE000BA01607C77276B0163E0D594C7946A955C
:100DF000E1F7BA0163707727E5E0660F771FEA95A0
:100E0000E1F76C296B29609302016EB1677C6EB9C2
:100E1000BEB0BA016C7077276B01CC0CDD1CCC0C1A
:100E2000DD1CBA0160727727759567957595679592
:100E30006C296B296EB9A59864B340715527440F8E
:100E4000551F462B44BB6D8D7E8DFB0150814FA1FC
:100E5000452340836D8D7E8DFB0150814BA1452B39
:100E60004083409102014778409302016091020162
:100E7000AC01407C55276A0143E0D594C7944A955C
:100E8000E1F7AC014370552775E0440F551F7A9583
:100E9000E1F74C29462B409302014EB1477C4EB9F5
:100EA0006EB1AC014C7055276A01CC0CDD1CCC0C2A
:100EB000DD1CAC01407255275595479555954795D2
:100EC0004C29462B4EB9A59864B380719927880F99
:100ED000991F862B84BB4D8D5E8DFA0190818FA169
:100EE000892380834D8D5E8DFA0190818BA1892BA2
:100EF00080834B8D5C8DFA0190818EA18923808344
:100F00008091020187788093020180910201809391
:100F100002018EB1877C8EB98EB18EB9A59884B34B
:100F200084BB4D8D5E8DFA0190818FA189238083D2
:100F30004D8D5E8DFA0190818BA1892B80838091EC
:100F40000201877880930201809102018862809378
:100F500002018EB1877C8EB98EB18EB9A598A59A03
:100F60004D8D5E8DFA0190818FA1892380834D8DF7
:100F70005E8DFA0190818BA1892B8083832F992725
:100F800087FD9A956B8D7C8DFB0150814AA1452B85
:100F90004083409102014778409302016091020131
:100FA000AC01407C55276A0173E0D594C7947A95CB
:100FB000E1F7AC0143705527E5E0440F551FEA9572
:100FC000E1F74C29462B409302014EB1477C4EB9C4
:100FD0006EB1AC014C7055276A01CC0CDD1CCC0CF9
:100FE000DD1CAC01407255275595479555954795A1
:100FF0004C29462B4EB9A59844B380719927880F88
:10100000991F842B84BB4D8D5E8DFA0190818FA139
:10101000892380834D8D5E8DFA0190818BA1892B70
:1010200080838091020187788093020140910201C0
:10103000C901807C9927BC01F3E075956795FA9505
:10104000E1F7C9018370992755E0880F991F5A95D8
:10105000E1F7862B842B809302018EB1877C8EB9B9
:101060004EB1C9018C709927BC01660F771F660FBE
:10107000771FC901807299279595879595958795D2
:10108000862B842B8EB9A59884B320713327220F29
:10109000331F282B24BB2D8D3E8DF90190818FA10C
:1010A000892380832D8D3E8DF90190818BA1892B21
:1010B00080832B8D3C8DF90190818EA189238083C3
:1010C00080910201877880930201809102018093D0
:1010D00002018EB1877C8EB98EB18EB9A59884B38A
:1010E00084BB2D8D3E8DF90190818FA18923808352
:1010F0002D8D3E8DF90190818BA1892B808380916C
:1011000002018778809302018091020188648093B4
:1011100002018EB1877C8EB98EB18EB9A598A59A41
:101120002D8D3E8DF90190818FA1892380832D8D96
:101130003E8DF90190818BA1892B80838F2D99277A
:1011400087FD9A954B8D5C8DFA0130812AA1232B66
:10115000208320910201277820930201409102010F
:101160009C01207C3327B90133E0759567953A954A
:10117000E1F79C012370332755E0220F331F5A9566
:10118000E1F7262B242B209302012EB1277C2EB9C8
:101190004EB19C012C703327B901660F771F660F83
:1011A000771F9C0120723327359527953595279514
:1011B000262B242B2EB9A59824B380719927880F4C
:1011C000991F822B84BB2D8D3E8DF90190818FA1BB
:1011D000892380832D8D3E8DF90190818BA1892BF0
:1011E000808380910201877880930201209102011F
:1011F000C701807C9927AC0163E0559547956A95B6
:10120000E1F7C7018370992775E0880F991F7A95D8
:10121000E1F7842B822B809302018EB1877C8EB9FB
:101220002EB1C7018C709927AC01440F551F440F94
:10123000551FC70180729927959587959595879534
:10124000842B822B8EB9A59844B397012071332744
:10125000220F331F242B24BB2D8D3E8DF90190814D
:101260008FA1892380832D8D3E8DF90190818BA1E3
:10127000892B80832B8D3C8DF90190818EA1892350
:10128000808380910201877880930201809102011E
:10129000809302018EB1877C8EB98EB18EB9A598EC
:1012A00084B384BB2D8D3E8DF90190818FA189235C
:1012B00080832D8D3E8DF90190818BA1892B8083B8
:1012C00080910201877880930201809102018866F3
:1012D000809302018EB1877C8EB98EB18EB9A598AC
:1012E000A59A2D8D3E8DF90190818FA18923808350
:1012F0002D8D3E8DF90190818BA1892B8083812FCB
:10130000992787FD9A954B8D5C8DFA0130812AA132
:10131000232B208320910201277820930201409102
:1013200002019C01207C3327B90123E07595679564
:101330002A95E1F79C012370332755E0220F331FD4
:101340005A95E1F7262B242B209302012EB1277CFE
:101350002EB94EB19C012C703327B901660F771F4F
:10136000660F771F9C012072332735952795359599
:101370002795262B242B2EB9A59824B38071992765
:10138000880F991F822B84BB2D8D3E8DF901908192
:101390008FA1892380832D8D3E8DF90190818BA1B2
:1013A000892B8083809102018778809302012091AC
:1013B0000201C801807C9927AC0163E055954795EF
:1013C0006A95E1F7C8018370992775E0880F991F26
:1013D0007A95E1F7842B822B809302018EB1877C72
:1013E0008EB92EB1C8018C709927AC01440F551FDE
:1013F000440F551FC801807299279595879595953B
:101400008795842B822B8EB9A59824B30071112760
:10141000000F111F022B04BB2D8D3E8DF901908111
:101420008FA1892380832D8D3E8DF90190818BA121
:10143000892B80832B8D3C8DF90190818EA189238E
:10144000808380910201877880930201809102015C
:10145000809302018EB1877C8EB98EB18EB9A5982A
:1014600084B384BB2D8D3E8DF90190818FA189239A
:1014700080832D8D3E8DF90190818BA1892B8083F6
:10148000809102018778809302018091020180930C
:1014900002018EB1877C8EB9739AA59884B384BB00
:1014A0002D8D3E8DF90190818FA1892380832D8D13
:1014B0003E8DF90190818BA1892B80838B2F9927F9
:1014C00087FD9A954B8D5C8DFA0130812AA1232BE3
:1014D000208320910201277820930201409102018C
:1014E0009C01207C3327B90123E0759567952A95E7
:1014F000E1F79C012370332755E0220F331F5A95E3
:10150000E1F7262B242B209302012EB1277C2EB944
:101510004EB19C012C703327B901660F771F660FFF
:10152000771F9C0120723327359527953595279590
:10153000262B242B2EB9A59824B380719927880FC8
:10154000991F822B84BB2D8D3E8DF90190818FA137
:10155000892380832D8D3E8DF90190818BA1892B6C
:10156000808380910201877880930201209102019B
:10157000CD01807C9927AC0103E0559547950A95EC
:10158000E1F7CD018370992735E0880F991F3A95CF
:10159000E1F7842B822B809302018EB1877C8EB978
:1015A0002EB1CD018C709927AC01440F551F440F0B
:1015B000551FCD01807299279595879595958795AB
:1015C000842B822B8EB9A59884B3A071BB27AA0F58
:1015D000BB1FA82BA4BBAD8DBE8D9C918FA1892371
:1015E0008C93AD8DBE8D9C918BA1892B8C93AB8DF3
:1015F000BC8D9C918EA189238C9380910201877868
:101600008093020180910201809302018EB1877C58
:101610008EB98EB18EB9A59884B384BBAD8DBE8DC5
:101620009C918FA189238C93AD8DBE8D9C918BA1B4
:10163000892B8C938091020187788093020180919D
:1016400002018062809302018EB1877C8EB9739A09
:10165000A59884B384BBAD8DBE8D9C918FA1892349
:101660008C93AD8DBE8D9C918BA1892B8C93892DF4
:10167000992787FD9A95AB8DBC8D3C912AA1232B90
:101680002C932091020127782093020140910201BE
:101690009C01207C3327B901A3E075956795AA9535
:1016A000E1F79C0123703327B5E0220F331FBA9571
:1016B000E1F7262B242B209302012EB1277C2EB993
:1016C0004EB19C012C703327B901660F771F660F4E
:1016D000771F9C01207233273595279535952795DF
:1016E000262B242B2EB9A59824B380719927880F17
:1016F000991F822B84BBAD8DBE8D9C918FA18923B8
:101700008C93AD8DBE8D9C918BA1892B8C938091F8
:10171000020187788093020120910201C401807C3C
:101720009927AC0163E0559547956A95E1F7C401A7
:101730008370992775E0880F991F7A95E1F7842BBC
:10174000822B809302018EB1877C8EB92EB1C401A9
:101750008C709927AC01440F551F440F551FC401CD
:10176000807299279595879595958795842B822BDF
:101770008EB9A59884B3F401E071FF27EE0FFF1F27
:10178000E82BE4BB80C3413009F08AC3492F5527B9
:1017900047FD5A95EB8DFC8D70816EA167236083A8
:1017A00060910201677860930201609102016064B8
:1017B000609302016EB1677C6EB96EB16EB9A59887
:1017C00064B364BBED8DFE8D70816FA16723608370
:1017D000ED8DFE8D70816BA1672B6083EB8DFC8D91
:1017E00070816AA1672B60836091020167786093C2
:1017F0000201E0910201BA01607C7727DB0173E00E
:10180000B595A7957A95E1F7BA0163707727F5E06A
:10181000660F771FFA95E1F76A2B6E2B6093020132
:101820006EB1677C6EB9EEB1BA016C707727DB01DF
:10183000AA0FBB1FAA0FBB1FBA016072772775954D
:101840006795759567956A2B6E2B6EB9A59864B3ED
:1018500040715527440F551F462B44BBED8DFE8D1F
:1018600050814FA145234083ED8DFE8D50814BA1CA
:10187000452B4083EB8DFC8D50814EA14523408349
:101880004091020147784093020140910201406675
:10189000409302014EB1477C4EB94EB14EB9A59866
:1018A00044B344BBED8DFE8D50814FA14523408351
:1018B000ED8DFE8D50814BA1452B4083EB8DFC8D32
:1018C00050814AA1452B40834091020147784093C3
:1018D000020160910201AC01407C5527FA01B3E09E
:1018E000F595E795BA95E1F7AC014370552775E09A
:1018F000440F551F7A95E1F74E2B462B409302017A
:101900004EB1477C4EB96EB1AC014C705527FA010F
:10191000EE0FFF1FEE0FFF1FAC01407255275595CC
:101920004795559547954E2B462B4EB9A59864B3D0
:1019300080719927880F991F862B84BBED8DFE8DB2
:1019400090818FA189238083ED8DFE8D90818BA165
:10195000892B80838F2D992787FD9A95EB8DFC8DA0
:1019600050814EA145234083409102014778409326
:101970000201409102014064409302014EB1477C54
:101980004EB9749AA59844B344BBED8DFE8D508139
:101990004FA145234083ED8DFE8D50814BA1452BFA
:1019A0004083EB8DFC8D50814AA1452B40834091B3
:1019B000020147784093020160910201AC01407C32
:1019C0005527FA0173E0F595E7957A95E1F7AC01B3
:1019D00043705527F5E0440F551FFA95E1F74E2B5C
:1019E000462B409302014EB1477C4EB96EB1AC011B
:1019F0004C705527FA01EE0FFF1FEE0FFF1FAC01D1
:101A00004072552755954795559547954E2B462B32
:101A10004EB9A59844B380719927880F991F842BDC
:101A200084BBED8DFE8D90818FA189238083ED8D08
:101A3000FE8D90818BA1892B8083EB8DFC8D908115
:101A40008EA189238083809102018778809302018F
:101A5000809102018066809302018EB1877C8EB9ED
:101A6000749AA59884B384BBED8DFE8D90818FA16F
:101A700089238083ED8DFE8D90818BA1892B8083BE
:101A8000EB8DFC8D90818AA1892B8083809102014E
:101A900087788093020140910201C701807C9927D9
:101AA000BC01E3E075956795EA95E1F7C70183709E
:101AB0009927F5E0880F991FFA95E1F7862B842B7B
:101AC000809302018EB1877C8EB94EB1C7018C70B4
:101AD0009927BC01660F771F660F771FC7018072B9
:101AE00099279595879595958795862B842B8EB903
:101AF000A59844B3F0E1EF22FF24EE0CFF1CE42A8A
:101B0000E4BAED8DFE8D90818FA189238083ED8DC8
:101B1000FE8D90818BA1892B8083832F992787FD50
:101B20009A95EB8DFC8D50814EA1452340834091C9
:101B30000201477840930201409102014093020163
:101B40004EB1477C4EB9749AA59844B344BBED8D11
:101B5000FE8D50814FA145234083ED8DFE8D508138
:101B60004BA1452B4083EB8DFC8D50814AA1452B29
:101B70004083409102014778409302016091020145
:101B8000AC01407C5527FA0143E0F595E7954A956D
:101B9000E1F7AC014370552775E0440F551F7A9566
:101BA000E1F74E2B462B409302014EB1477C4EB9D4
:101BB0006EB1AC014C705527FA01EE0FFF1FEE0F0E
:101BC000FF1FAC0140725527559547955595479590
:101BD0004E2B462B4EB9A59844B380719927880F98
:101BE000991F842B84BBED8DFE8D90818FA189235D
:101BF0008083ED8DFE8D90818BA1892B8083EB8D71
:101C0000FC8D90818EA18923808380910201877849
:101C100080930201809102018062809302018EB163
:101C2000877C8EB9749AA59884B384BBED8DFE8DA4
:101C300090818FA189238083ED8DFE8D90818BA172
:101C4000892B8083EB8DFC8D90818AA1892B8083E9
:101C50008091020187788093020140910201C901BD
:101C6000807C9927BC01E3E075956795EA95E1F7DB
:101C7000C90183709927F5E0880F991FFA95E1F75C
:101C8000862B842B809302018EB1877C8EB94EB156
:101C9000C9018C709927BC01660F771F660F771FEB
:101CA000C901807299279595879595958795862B7B
:101CB000842B8EB9A59884B320713327220F331F4C
:101CC000282B24BBED8DFE8D90818FA189238083ED
:101CD000ED8DFE8D90818BA1892B8083812F99279B
:101CE00087FD9A95EB8DFC8D30812EA123232083D7
:101CF0002091020127782093020120910201209374
:101D000002012EB1277C2EB9759AA59824B324BB65
:101D1000ED8DFE8D30812FA123232083ED8DFE8D4F
:101D200030812BA1232B2083EB8DFC8D30812AA1C8
:101D3000232B2083209102012778209302014091D8
:101D400002019C01207C3327B90133E0759567952A
:101D50003A95E1F79C012370332755E0220F331F9A
:101D60005A95E1F7262B242B209302012EB1277CD4
:101D70002EB94EB19C012C703327B901660F771F25
:101D8000660F771F9C01207233273595279535956F
:101D90002795262B242B2EB9A59824B3807199273B
:101DA000880F991F822B84BBED8DFE8D90818FA1B2
:101DB00089238083ED8DFE8D90818BA1892B80837B
:101DC000EB8DFC8D90818EA189238083809102010F
:101DD00087788093020180910201806280930201E2
:101DE0008EB1877C8EB9759AA59884B384BBED8D2E
:101DF000FE8D90818FA189238083ED8DFE8D908152
:101E00008BA1892B8083EB8DFC8D90818AA1892BFE
:101E100080838091020187788093020120910201E2
:101E2000C801807C9927AC01B3E055954795BA95D8
:101E3000E1F7C8018370992735E0880F991F3A951B
:101E4000E1F7842B822B809302018EB1877C8EB9BF
:101E50002EB1C8018C709927AC01440F551F440F57
:101E6000551FC801807299279595879595958795F7
:101E7000842B822B8EB9A59824B300711127000FF3
:101E8000111F022B04BBED8DFE8D90818FA1892344
:101E90008083ED8DFE8D90818BA1892B80832FC057
:101EA0004250423060F5092E000CAA0BBB0BDC013E
:101EB00099278827A901330F660B770B9A01AB018D
:101EC000282B392B4A2B5B2B6AE2CE010E940F2F65
:101ED000C701FF0CAA0BBB0BBC0155274427012EE1
:101EE000000C220B330BD901C801842B952BA62B98
:101EF000B72B9C01AD016BE2CE010E940F2FE98D43
:101F0000FA8D908189A1892B8083DF91CF911F91D8
:101F10000F91FF90EF90DF90CF90BF909F908F90A8
:101F2000089508952F923F924F925F926F927F9201
:101F30008F929F92AF92BF92CF92DF92EF92FF92D9
:101F40000F931F93CF93DF93CDB7DEB72D970FB6C7
:101F5000F894DEBF0FBECDBF9D878C876A30A1F499
:101F6000DC0154962C9154971E968D919C911F974D
:101F7000B8E02B9F800D911D1124EC85FD8597877E
:101F8000868715861486F8C06D3009F4F5C0AC85D7
:101F9000BD851C96CD90DC901D9718968D919C91D7
:101FA0001997C816D906BCF0EC85FD854489242F05
:101FB00030E084859585F6E04F9F800D911D1124BA
:101FC000AC85BD851D969C938E931C9756964C911F
:101FD0004111AEC0D1C0EC85FD8586849784828591
:101FE00093858816990604F7F489F983AF2EB12CEE
:101FF000C60126E0F29F800D911D112418161906C6
:102000009CF6C50123E0880F991F2A95E1F7880DFA
:10201000991D1816190644F6AC85BD8557968C9106
:10202000811103C0603B08F06F5FEC85FD8502887D
:10203000F389E02DFD83EC83AC85BD8550960D9032
:10204000BC91A02DBF83AE83B5E06B9FB00111247E
:1020500016011A82FB01EC19FD09F987E887940142
:10206000285F3F4F3B872A873A81353049F0E88522
:10207000F985E20DF31DEC5DF94F54915B8301C0CE
:102080001B82240134018B8180FF13C0AC85BD8588
:10209000ED91FC91B981B13031F40084F185E02DEE
:1020A0002E813F8119C00288F389E02DEE80FF80E8
:1020B0001EC0EC81FD812E813F81E217F307F1F014
:1020C000AC85BD85ED91FC91B981B13059F40084A6
:1020D000F185E02D2C813D81A301B1018C859D8589
:1020E00019950CC00288F389E02DEC80FD808501F4
:1020F0009501A201B6018C859D851995EB81E69528
:10210000EB83FFEF6F1A7F0A4A0C5B1C2A853B8525
:102110002615370509F0B7CF3A813F5F3A835FEF65
:10212000251A350ACA0CDB1C363009F09DCF3CCF8E
:102130004AEF4203B001439F700D1124AC85BD8569
:1021400018964D915C911997460F571F48175907DC
:102150009CF483E0220F331F8A95E1F71E968D9140
:102160009C911F97280F391F1F963C932E931E9703
:102170001D961C921E921C9781E090E02D960FB642
:10218000F894DEBF0FBECDBFDF91CF911F910F91AD
:10219000FF90EF90DF90CF90BF90AF909F908F9087
:1021A0007F906F905F904F903F902F900895EF92A7
:1021B000FF920F931F93DC011A960D911C911B97B0
:1021C00018962D913C911997ED91FC910288F38915
:1021D000E02D7B0140E050E060E070E019951F9138
:1021E0000F91FF90EF9008956F927F928F929F9240
:1021F000AF92BF92CF92DF92EF92FF920F931F9315
:10220000CF93DF936C015A014801EB013B01620E51
:10221000731EC615D70574F4D601ED91FC910484A4
:10222000F585E02D87019401A501BE01C601199530
:102230002196EFCFDF91CF911F910F91FF90EF90FB
:10224000DF90CF90BF90AF909F908F907F906F90D6
:102250000895EF92FF920F931F93260F371F21507F
:102260003109DC01ED91FC910284F385E02D7801C8
:102270008A0119951F910F91FF90EF900895EF92A9
:10228000FF920F931F93240F351F21503109DC015A
:10229000ED91FC910284F385E02D780189019B0189
:1022A00019951F910F91FF90EF9008956F927F9273
:1022B0008F929F92AF92BF92CF92DF92EF92FF9256
:1022C0000F931F93CF93DF93EC014B015A016901E8
:1022D0003801E881F9810684F785E02D8701199599
:1022E000A501460D571D41505109E881F981068429
:1022F000F785E02D9601B401CE011995E881F981A9
:102300000484F585E02D9301A501B401CE01199552
:10231000C80CD91CB60161507109E881F9810484A7
:10232000F585E02D9301A501CE011995DF91CF919F
:102330001F910F91FF90EF90DF90CF90BF90AF90E3
:102340009F908F907F906F9008952F923F924F9221
:102350005F926F927F928F929F92AF92BF92CF9235
:10236000DF92EF92FF920F931F93CF93DF9300D0F2
:1023700000D0CDB7DEB72C017E836D836A01590191
:10238000C801FC82EB824801841A950A97FE03C0BB
:1023900091948194910835012D813E81621A730ACE
:1023A00077FE03C0719461947108681479045CF439
:1023B0003A2D2B2D5C01832F922F3D812E81DE82C1
:1023C000CD82C32ED22EAD81BE81AA16BB065CF48F
:1023D0003C2D2D2D6C01832F922F3D812E81BE82AD
:1023E000AD82A32EB22E85012D813E81021B130BDF
:1023F0001C012C183D0837FE03C03194219431088C
:10240000780117FF03C03FEFE31AF30AF594E7944E
:10241000C816D9062CF08FEF9FEF9A83898304C0EA
:10242000A1E0B0E0BA83A9832D813E81A216B30654
:1024300024F1D201ED91FC910084F185E02D2B81F6
:102440003C816814790424F44D815E81B60103C097
:10245000A6016D817E81C2011995E218F308F7FE8D
:1024600006C029813A81C20ED31EE00EF11E8D8175
:102470009E8101969E838D83D7CF26960FB6F894C2
:10248000DEBF0FBECDBFDF91CF911F910F91FF90A7
:10249000EF90DF90CF90BF90AF909F908F907F9004
:1024A0006F905F904F903F902F900895089580E037
:1024B00090E00895CF93DF93DC014770552766279E
:1024C0007727FA013197CD91DC911197E730F1052B
:1024D00030F48827EE58FF4F8F4F0C94B249EC81AF
:1024E000FD8161E01BC0EC81FD8165E017C0EC81DE
:1024F000FD8164E013C0EC81FD8166E00FC0EC81DA
:10250000FD8162E00BC0EC81FD816AE007C0EC81D7
:10251000FD8168E003C0EC81FD8169E0CD01DF91C0
:10252000CF911994CF93DF93EC01CB01BA0126E050
:1025300030E040E050E00E944F4962307105810573
:10254000910559F18CF46115710581059105F1F042
:102550006130710581059105C1F5E881F98104803B
:10256000F581E02D65E02DC0643071058105910590
:1025700011F1D4F0653071058105910531F5E881DF
:10258000F9810480F581E02D66E01BC0E881F981C6
:102590000480F581E02D64E014C0E881F9810480B5
:1025A000F581E02D61E00DC0E881F9810480F581BD
:1025B000E02D63E006C0E881F9810480F581E02D1B
:1025C00062E0CE01DF91CF911994DF91CF91089510
:1025D0004370552766277727DC01ED91FC91048035
:1025E000F581E02D423051056105710571F04330F0
:1025F00051056105710559F04130510561057105BD
:1026000011F065E005C066E003C06AE001C069E062
:102610001994CF93DF93EC01CB01BA0123E030E0B2
:1026200040E050E00E944F496130710581059105FD
:1026300081F0623071058105910591F0672B682B5F
:10264000692BC1F4E881F9810480F581E02D64E013
:102650000DC0E881F9810480F581E02D61E006C0BC
:10266000E881F9810480F581E02D62E0CE01DF91FF
:10267000CF911994DF91CF91089543705527662724
:102680007727DC01ED91FC910480F581E02D42304B
:1026900051056105710571F0433051056105710502
:1026A00059F0413051056105710511F062E005C036
:1026B00063E003C061E001C060E01994CF93DF9351
:1026C000EC01E881F9810480F581E02D8A81811196
:1026D00002C060E001C062E0CE011995E881F98195
:1026E0000480F581E02D8A81811102C061E001C082
:1026F00063E0CE0119958CA59DA58230910538F037
:10270000880F991F880F991F05970197F1F7E881A6
:10271000F9810480F581E02D8A81811102C060E099
:1027200001C062E0CE01DF91CF911994CF93DF9386
:10273000EC0120E030E0A9016C897D898E899F89B8
:102740000E94DE4A18161CF4E8A9F9A902C0EAA9F9
:10275000FBA9DF91CF9119940F931F93DC0113967E
:102760000C91139710E009301105D8F5F80188276E
:10277000E758FF4F8F4F0C94B249ED91FC911197A0
:102780000084F185E02D29C0ED91FC911197028420
:10279000F385E02D22C0ED91FC9111970484F5851D
:1027A000E02D1BC0ED91FC9111970684F785E02D7B
:1027B00014C0ED91FC9111970088F189E02D0DC0B6
:1027C000ED91FC9111970288F389E02D06C0ED91FF
:1027D000FC9111970488F589E02DCD011F910F918F
:1027E00019941F910F910895862F642F0C94EB2755
:1027F000CF93DF93FC01218530E0F901E25CF44FD7
:102800008491F901EC57F44FD491F901EC51F44F54
:10281000C491CC2379F081110E946627EC2FF0E05F
:10282000EE0FFF1FE65FF94FA591B491EC91ED23F8
:1028300081E009F480E08170DF91CF910895CF931A
:10284000DF93FC012381222359F1EC0161E08481B3
:102850000E94EB2761E08D810E94EB278B81843001
:1028600011F0883039F461E08E810E94EB2761E03D
:102870008F8106C0833011F0863021F461E08E81B3
:102880000E94EB278FA58F3F59F061E00E94EB2754
:102890006EA581E068278FA5DF91CF910C94BC27AE
:1028A000DF91CF910895CF93DF93FC012381222301
:1028B000A9F0EC010190F081E02D0480F581E02D7C
:1028C00060E019958FA58F3F49F061E00E94EB27EA
:1028D0006EA58FA5DF91CF910C94BC27DF91CF918E
:1028E0000895CF92DF92EF92FF920F931F93CF93B1
:1028F000DF93EC019B81943041F0983031F09330BC
:1029000031F0963021F012E003C014E001C013E072
:102910002496E12CF12CC62ED12C01E0C6010E2C00
:1029200002C0959587950A94E2F76C8180FD602737
:1029300089910E94BC278FEFE81AF80AE11670F31C
:10294000DF91CF911F910F91FF90EF90DF90CF908B
:102950000895DC0112968D919C9113971696ED9136
:10296000FC9117979F0136952795FC01E21BF30B0D
:102970006E177F07E0F0280F391F26173707B8F0CA
:1029800014962D913C91159718966D917C911997FD
:10299000CB0196958795B901681B790B46175707A8
:1029A00030F0280F391F81E02417350708F480E044
:1029B0000895EF92FF920F931F93CF93DF9300D070
:1029C00000D0CDB7DEB760E070E081EE94E00E9409
:1029D000AD301092EE041092ED041092F0041092BB
:1029E000EF048FEF9FEF9093F4048093F3049093A0
:1029F000F2048093F10483E08093F50490EAE92ED9
:102A000092E0F92E00E010E01A8219821C821B82EB
:102A10001E821D8266E070E0CE0101960E94732E38
:102A200029813A8181110DC02115310519F0C901A3
:102A30000E94D64B1A8219821E821D821C821B8222
:102A400009C086E090E09E838D8369E872E0C90149
:102A50000E94524D0F5F1F4FB801CE0101960E9498
:102A6000432E42E050E060E972E0CE0101960E9400
:102A7000321DF701619171917F01CE0101960E9493
:102A8000432E42E050E063E972E0CE0101960E94DD
:102A9000321D4D815E8169817A8181EE94E00E94D0
:102AA000062D64E772E081EE94E00E949A2E8981FF
:102AB0009A810E94D64B0530110509F0A5CF00E59B
:102AC00014E08FEBE82E83E0F82EC8010E948916EF
:102AD000C7010E948916035E1F4FFDE1EF0EF11C36
:102AE00084E0013E180789F782EA93E00E94891684
:102AF00026960FB6F894DEBF0FBECDBFDF91CF9103
:102B00001F910F91FF90EF9008952F923F924F9257
:102B10005F926F927F928F929F92AF92BF92CF926D
:102B2000DF92EF92FF920F931F93CF93DF9300D02A
:102B30001F92CDB7DEB78091AA02882349F08AEAB6
:102B40009AE59A838983AAEACA2EAAE5DA2E08C0F2
:102B5000E0E0F8EFFA83E983F0EECF2EF7E0DF2E26
:102B600000E514E08FEB93E09C838B83E12CF12C48
:102B700051EE252E54E0352E68E2A62EB12C78E1D8
:102B8000672E712C44244394512C47019CE0890EFC
:102B9000911C8091E9049091EA044497F801938391
:102BA000828395828482B782A682718660865486EB
:102BB0004386D686C5868FEF9FEF908B878792E0FE
:102BC00092873182208249E050E066E972E0C801D4
:102BD00041960E94594DF801128EC8010E94891633
:102BE0008091E9049091EA04CC97EB81FC81938376
:102BF000828395828482B782A6827186608654869B
:102C0000438689819A81968785878FEF9FEF908B86
:102C1000878792E092873182208249E050E068E91C
:102C200072E0CF0141960E94594DEB81FC81128EDA
:102C3000CF010E948916035E1F4FF8E1EF0EF11CD1
:102C40008B819C814D969C838B8398E7E916F104D8
:102C500009F09BCF2091EB043091EC042154310911
:102C60008091E9049091EA0497FD019695958795E6
:102C70009093A5038093A4033093A7032093A60306
:102C800088E790E09093A9038093A80386E490E0FE
:102C90009093AB038093AA0381E090E09093AE03FE
:102CA0008093AD03D092B003C092AF038FEF9FEF3C
:102CB0009093B2038093B10382E08093AC0381EEE2
:102CC00094E09093A3038093A20349E050E06AE963
:102CD00072E083EB93E00E94594D1092BC0382EAAC
:102CE00093E00F900F900F900F90DF91CF911F9175
:102CF0000F91FF90EF90DF90CF90BF90AF909F909B
:102D00008F907F906F905F904F903F902F900C949A
:102D100089162F923F924F925F926F927F928F927D
:102D20009F92AF92BF92CF92DF92EF92FF920F935A
:102D30001F93CF93DF93CDB7DEB72C970FB6F894E0
:102D4000DEBF0FBECDBF9C878B87DC011D962D900B
:102D50003C901E971B96ED91FC911C97FA83E9839A
:102D60001F962D913C9150973A8729871696CD90C2
:102D7000DC9017971896AD90BC901997CA14DB0495
:102D800010F4460101C04501969487949694879467
:102D9000C50196958795AB85BC8514966D907C9002
:102DA0001597F301E81BF90BFC83EB83C60196959D
:102DB000879512966D917C9113979B01281B390B77
:102DC0003E832D834D905C903401660C771C280D5A
:102DD000391D38872F83960126193709D201ED91C5
:102DE000FC910288F389E02D710185014B815C81A2
:102DF0006F817885C2011995A618B708B1E0AB1AA2
:102E0000B1086B807C80680C791C6D817E816C0DB3
:102E10007D1D68197909615071096101750101E031
:102E20009401A301C2010E94312C02E09401A3018C
:102E30006F817885C2010E94312CEB85FC85E6808C
:102E4000F78020843184E214F30410F4470101C0B8
:102E500041019694879496948794C101969587959D
:102E6000AB85BC8514966D907C901597681A790A8D
:102E7000C701969587951296AD90BC901397A81AA6
:102E8000B90ACD90DC90F401EE0FFF1FFC83EB83B9
:102E900097012E1B3F0B3E832D8324014A0C5B1CA4
:102EA000D601ED91FC910684F785E02D09811A8108
:102EB000A301B201C6011995F101E60DF71DF887CE
:102EC000EF83AF0141505109D601ED91FC91068489
:102ED000F785E02D09811A812D813E81B201C6015D
:102EE0001995EB81FC812E1A3F0A680C791CD601DA
:102EF000ED91FC910484F585E02D09811A81910101
:102F0000A301B501C6011995AE0CBF1CB5016150F6
:102F10007109D601ED91FC910484F585E02D0981BC
:102F20001A819101A301C6011995E980FA8001E097
:102F30009401A301B201C6010E94332BA818B9085D
:102F4000B1E0AB1AB108E980FA8002E09401A30174
:102F5000B501C6010E94332B6F8078846818790808
:102F6000E1E06E1A7108E980FA8004E09401A3019F
:102F7000B501C6010E94332BE980FA8008E0940174
:102F8000A301B201C6010E94332BAB85BC851A9602
:102F90002C911A9714964D915C911597B4E02B9F44
:102FA0004019510911246B857C856F5E7F4FFB01B1
:102FB00001900020E9F73197CF01861B970BAB8575
:102FC000BC85ED91FC91B3E02B9F90011124289FCB
:102FD0007001299FF00C389FF00C1124AB85BC8543
:102FE00012968D919C9113978E199F0995878487CE
:102FF0005787468729853A85338B228B318B208BE7
:103000001A968C91811101C081E0848BAB85BC85BF
:103010008D919C912C960FB6F894DEBF0FBECDBF5C
:10302000DF91CF911F910F91FF90EF90DF90CF90A4
:10303000BF90AF909F908F907F906F905F904F90D8
:103040003F902F900C949A2ECF92DF92EF92FF92A6
:103050008091820390918303A0918403B0918503B2
:10306000892B8A2B8B2B11F480E04FC00E944435B2
:103070006B017C018091860390918703A091880366
:10308000B0918903B701A601481B590B6A0B7B0B52
:103090008091820390918303A0918403B091850372
:1030A000481759076A077B07F8F22091600380915F
:1030B0006A0390916B03A0916C03B0916D0322237E
:1030C00021F00196A11DB11D03C00197A109B1090D
:1030D00080936A0390936B03A0936C03B0936D038A
:1030E00040916A0350916B0360916C0370916D0382
:1030F0008EE593E00E94AC13C0928603D0928703C2
:10310000E0928803F092890381E0FF90EF90DF90D6
:10311000CF9008950F931F930E94241881110E944D
:10312000012920E030E0A9016091720370917303DE
:1031300080917403909175030E942B48811118C0EF
:1031400081E000916E0310916F0320917003309124
:10315000710340916A0350916B0360916C0370910D
:103160006D03041715072607370719F480E001C01F
:1031700081E01F910F9108958F929F92AF92BF921D
:103180000F931F93CF93DF93CDB7DEB7A1970FB601
:10319000F894DEBF0FBECDBF19A2423008F44AE05A
:1031A0008E010F5D1F4F842E912CA12CB12CA501F7
:1031B00094010E948149E62FB901CA010150110909
:1031C000EA3014F4E05D01C0E95CD801EC93232BF4
:1031D000242B252B61F7B8018FEA92E00E949A2EEA
:1031E000A1960FB6F894DEBF0FBECDBFDF91CF9191
:1031F0001F910F91BF90AF909F908F900895CF92A5
:10320000DF92EF92FF92CF93DF936C01990FEE085C
:10321000FF08F7FE13C06DE28FEA92E00E94992D3D
:10322000EC0166277727CB016C197D098E099F0970
:103230004AE00E94BC18C80FD91F06C04AE0C70167
:10324000B6010E94BC18EC0164E772E08FEA92E0DC
:103250000E949A2E8C0F9D1FDF91CF91FF90EF90CF
:10326000DF90CF9008950F931F93CF9380915403D5
:103270008B7F809354038CE493E00E94F813C82F53
:103280008091540386958170C81789F00E94693532
:1032900060934E0370934F038093500390935103B8
:1032A0009091540382E089278093540353C00E9475
:1032B000693500914E0310914F03209150033091D6
:1032C0005103AB01BC01401B510B620B730B80918E
:1032D000520390915303A0E0B0E0481759076A07E2
:1032E0007B07C0F1809154038170C81799F10E9447
:1032F000693560934E0370934F038093500390930E
:1033000051039091540381E0892784608093540392
:103310000E9469350091560310915703209158037C
:1033200030915903DC01CB01801B910BA20BB30B35
:1033300080935A0390935B03A0935C03B0935D0367
:103340000E94693560935603709357038093580326
:10335000909359038091540382FB882780F9CF9181
:103360001F910F9108958F929F92AF92BF92CF922B
:10337000DF92EF92FF920F931F93CF93DF938B0116
:10338000D82FC92FC0907603D0907703E0907803B0
:10339000F090790346015701B7FAB094B7F8B094AA
:1033A0009B01482F592FC501B4010E94DE4A18160F
:1033B0006CF098014D2F5C2FC701B6010E942B487D
:1033C00087FD06C06801ED2EFC2E02C07501640168
:1033D00020E030E0A901C701B6010E942B4881110D
:1033E00009C01092820310928303109284031092FA
:1033F000850320C0A701960160E074E284E799E4A8
:103400000E94364A9F770E94AF4A6093820370936E
:1034100083038093840390938503C1E020E030E030
:10342000A901C701B6010E94DE4A18160CF0C0E0DF
:10343000C0936003C0927203D0927303E09274034E
:10344000F0927503DF91CF911F910F91FF90EF9054
:10345000DF90CF90BF90AF909F908F9008956F9224
:103460007F928F929F92AF92BF92CF92DF92EF9214
:10347000FF920F931F93CF93DF93FC013B01A18D2C
:10348000B28D9C9185A189238C93A38DB48D9C9141
:1034900086A189238C93808D823011F181111EC009
:1034A00080910201877880930201809102018093CC
:1034B00002018EB1877C8EB98EB18EB9A59884B386
:1034C00084BBA58DB68D9C9187A189238C93A58DF6
:1034D000B68D9C9183A1892B8C9312C0833081F48B
:1034E000809102018778809302018091020180938C
:1034F00002018EB1877C8EB98EB188638EB90EC001
:10350000809102018778809302018091020180649A
:10351000809302018EB1877C8EB9739AA59884B38B
:1035200084BBA58DB68D9C9187A189238C93A58D95
:10353000B68D9C9183A1892B8C93A38DB48D9C9186
:1035400082A1892B8C93809102018778809302015C
:10355000A0910201872F90E07C01B0ECEB22FF24C8
:10356000B3E0F594E794BA95E1F78C010370112765
:10357000C5E0000F111FCA95E1F7BE2DB02BAB2B94
:10358000A0930201AEB1A77CAEB91EB16C01CCE034
:10359000CC22DD24CC0CDD1CCC0CDD1C7C01D0E26B
:1035A000ED22FF24F594E794F594E794AC2DAE2931
:1035B0001A2B1EB9A59814B380719927880F991FEB
:1035C000F82E812B84BB058D168DE801988187A18B
:1035D00089238883058D168DE801988183A1892B25
:1035E0008883809102018778809302018091020193
:1035F0008B01007C11276801D3E0D594C794DA953C
:10360000E1F78B010370112795E0000F111F9A95C8
:10361000E1F70C29802B809302018EB1877C8EB953
:103620008EB15B01DCE0AD22BB24AA0CBB1CAA0C52
:10363000BB1C6B0190E2C922DD24D594C794D594BC
:10364000C7941A2D1C29812B8EB9A59884B360715B
:103650007727660F771F762F682B64BB858D968D35
:10366000EC01E88067A16E216883858D968DEC0161
:10367000E88063A16E29688321503109410951090D
:1036800049015A0136E0B694A794979487943A95E5
:10369000D1F7C401761088C1019708F465C060E1D4
:1036A000A58DB68DCC9177A17C237C93A58DB68D0D
:1036B000CC9173A17C2B7C93A58DB68DCC9177A1F9
:1036C0007C237C93A58DB68DCC9173A17C2B7C93B0
:1036D000A58DB68DCC9177A17C237C93A58DB68DDD
:1036E000CC9173A17C2B7C93A58DB68DCC9177A1C9
:1036F0007C237C93A58DB68DCC9173A17C2B7C9380
:10370000A58DB68DCC9177A17C237C93A58DB68DAC
:10371000CC9173A17C2B7C93A58DB68DCC9177A198
:103720007C237C93A58DB68DCC9173A17C2B7C934F
:10373000A58DB68DCC9177A17C237C93A58DB68D7C
:10374000CC9173A17C2B7C93A58DB68DCC9177A168
:103750007C237C93A58DB68DCC9173A17C2B7C931F
:10376000615009F09DCF98CF2F73215008F465C1A7
:10377000A58DB68D9C9187A189238C93A58DB68D3F
:103780009C9183A1892B8C93A58DB68D9C9187A14B
:1037900089238C93A58DB68D9C9183A1892B8C93C5
:1037A000E4CFC0910201C778C0930201C091020129
:1037B000CB2BC0930201CEB1C77CCEB9CEB1CA2B00
:1037C000CEB9A598C4B3CF29C4BBC58DD68DD8803A
:1037D000E7A0ED20E882C58DD68DD880E3A0ED2846
:1037E000E882C0910201C778C0930201C091020132
:1037F000C02BC0930201CEB1C77CCEB9CEB1C12BD4
:10380000CEB9A598C4B3C72BC4BBC58DD68DD880FF
:10381000E7A0ED20E882C58DD68DD880E3A0ED2805
:10382000E882C0910201C778C0930201C0910201F1
:10383000CB2BC0930201CEB1C77CCEB9CEB1CA2B7F
:10384000CEB9A598C4B3CF29C4BBC58DD68DD880B9
:10385000E7A0ED20E882C58DD68DD880E3A0ED28C5
:10386000E882C0910201C778C0930201C0910201B1
:10387000C02BC0930201CEB1C77CCEB9CEB1C12B53
:10388000CEB9A598C4B3C72BC4BBC58DD68DD8807F
:10389000E7A0ED20E882C58DD68DD880E3A0ED2885
:1038A000E882C0910201C778C0930201C091020171
:1038B000CB2BC0930201CEB1C77CCEB9CEB1CA2BFF
:1038C000CEB9A598C4B3CF29C4BBC58DD68DD88039
:1038D000E7A0ED20E882C58DD68DD880E3A0ED2845
:1038E000E882C0910201C778C0930201C091020131
:1038F000C02BC0930201CEB1C77CCEB9CEB1C12BD3
:10390000CEB9A598C4B3C72BC4BBC58DD68DD880FE
:10391000E7A0ED20E882C58DD68DD880E3A0ED2804
:10392000E882C0910201C778C0930201C0910201F0
:10393000CB2BC0930201CEB1C77CCEB9CEB1CA2B7E
:10394000CEB9A598C4B3CF29C4BBC58DD68DD880B8
:10395000E7A0ED20E882C58DD68DD880E3A0ED28C4
:10396000E882C0910201C778C0930201C0910201B0
:10397000C02BC0930201CEB1C77CCEB9CEB1C12B52
:10398000CEB9A598C4B3C72BC4BBC58DD68DD8807E
:10399000E7A0ED20E882C58DD68DD880E3A0ED2884
:1039A000E882615009F0FDCE019710F060E1F9CE98
:1039B0002F73215008F441C08091020187788093D1
:1039C0000201809102018B2B809302018EB1877CD2
:1039D0008EB98EB18A2B8EB9A59884B38F2984BBFA
:1039E000C58DD68D988187A189238883C58DD68D75
:1039F000988183A1892B88838091020187788093A5
:103A0000020180910201802B809302018EB1877C9C
:103A10008EB98EB1812B8EB9A59884B3872B84BBC8
:103A2000C58DD68D988187A189238883C58DD68D34
:103A3000988183A1892B8883BCCFA18DB28D9C9165
:103A400081A1892B8C93DF91CF911F910F91FF90D2
:103A5000EF90DF90CF90BF90AF909F908F907F902E
:103A60006F900895EF92FF920F931F93CF93DF9380
:103A70006115710511F480E01CC041155105C1F0BC
:103A80007B01EC018C819D818A01080F191FB8010F
:103A9000CE010E94732E882371F3288139818C8195
:103AA0009D81B701820F931F0E94524D1D830C838D
:103AB00081E0DF91CF911F910F91FF90EF900895DA
:103AC000EF92FF920F931F93CF93DF93EC01790155
:103AD00077FD3EC657FD3CC68885998568177907EE
:103AE0000CF036C68A859B85481759070CF030C6FE
:103AF000E98DFA8D90818DA189238083888D811134
:103B000092C28D89823059F08330B1F08130D1F486
:103B10008FEE90E0841B950BAB01BC0113C08FEEC0
:103B200090E09C01261B370BB9018FE391E09C01CB
:103B3000241B350BA90106C08FE391E0861B970B70
:103B4000BA01AC01EB8DFC8D90818EA1892380831D
:103B50008091020187788093020180910201809315
:103B600002018EB1877C8EB98EB18EB9A59884B3CF
:103B700084BBED8DFE8D90818FA189238083ED8D97
:103B8000FE8D90818BA1892B8083809102018778A3
:103B90008093020180910201809302018EB1877CA3
:103BA0008EB9739AA59884B384BBED8DFE8D9081F8
:103BB0008FA189238083ED8DFE8D90818BA1892B30
:103BC0008083872F992787FD9A95EB8DFC8D308117
:103BD0002AA1232B20832091020127782093020120
:103BE000E09102019C01207C3327D901F3E0B595D7
:103BF000A795FA95E1F79C0123703327B5E0220FD2
:103C0000331FBA95E1F72A2B2E2B209302012EB1F8
:103C1000277C2EB9EEB19C012C703327D901AA0F55
:103C2000BB1FAA0FBB1F9C01207233273595279518
:103C3000359527952A2B2E2B2EB9A59824B3807164
:103C40009927880F991F822B84BBED8DFE8D908163
:103C50008FA189238083ED8DFE8D90818BA1892B8F
:103C60008083809102018778809302012091020174
:103C7000CB01807C9927FC01A3E0F595E795AA95F7
:103C8000E1F7CB0183709927B5E0880F991FBA95AA
:103C9000E1F78E2B822B809302018EB1877C8EB947
:103CA0002EB1CB018C709927FC01EE0FFF1FEE0F98
:103CB000FF1FCB01807299279595879595958795DC
:103CC0008E2B822B8EB9A59884B360717727660FEF
:103CD000771F682B64BBED8DFE8D90818FA18923AA
:103CE0008083ED8DFE8D90818BA1892B8083EB8D60
:103CF000FC8D90818EA18923808380910201877839
:103D00008093020180910201809302018EB1877C31
:103D10008EB98EB18EB9A59884B384BBED8DFE8D1E
:103D200090818FA189238083ED8DFE8D90818BA161
:103D3000892B808380910201877880930201809192
:103D400002018062809302018EB1877C8EB9739AE2
:103D5000A59884B384BBED8DFE8D90818FA18923BE
:103D60008083ED8DFE8D90818BA1892B8083852FA3
:103D7000992787FD9A95EB8DFC8D30812AA1232B05
:103D80002083209102012778209302016091020193
:103D90009C01207C3327F90133E0F595E7953A95AE
:103DA000E1F79C012370332775E0220F331F7A95CA
:103DB000E1F72E2B262B209302012EB1277C2EB962
:103DC0006EB19C012C703327F901EE0FFF1FEE0F2F
:103DD000FF1F9C0120723327359527953595279530
:103DE0002E2B262B2EB9A59824B380719927880FE6
:103DF000991F822B84BBED8DFE8D90818FA189232D
:103E00008083ED8DFE8D90818BA1892B80838091A5
:103E1000020187788093020120910201CA01807C0F
:103E20009927BC0103E0759567950A95E1F7CA01EA
:103E30008370992735E0880F991F3A95E1F7862B13
:103E4000822B809302018EB1877C8EB92EB1CA017C
:103E50008C709927BC01660F771F660F771FCA0108
:103E6000807299279595879595958795862B822BB6
:103E70008EB9A59884B340715527440F551F482B20
:103E800044BBED8DFE8D90818FA189238083ED8DC4
:103E9000FE8D90818BA1892B8083EB8DFC8D908191
:103EA0008EA189238083809102018778809302010B
:103EB00080910201809302018EB1877C8EB98EB110
:103EC0008EB9A59884B384BBED8DFE8D90818FA1B2
:103ED00089238083ED8DFE8D90818BA1892B80833A
:103EE00080910201877880930201809102018064B1
:103EF000809302018EB1877C8EB9739AA59884B3A2
:103F000084BBED8DFE8D90818FA189238083ED8D03
:103F1000FE8D90818BA1892B8083EB8DFC8D908110
:103F20008AA1892B80838091020187788093020186
:103F3000409102018F2D99279C01207C3327B901E4
:103F400013E0759567951A95E1F79C012370332767
:103F500005E0220F331F0A95E1F7262B242B20932F
:103F600002012EB1277C2EB94EB19C012C70332753
:103F7000B901660F771F660F771F9C0120723327E8
:103F80003595279535952795262B242B2EB9A59861
:103F900024B380719927880F991F822B84BBED8DE4
:103FA000FE8D90818FA189238083ED8DFE8D908180
:103FB0008BA1892B808380910201877880930201F5
:103FC00020910201C701807C9927AC0173E05595CF
:103FD00047957A95E1F7C70183709927E5E0880F47
:103FE000991FEA95E1F7842B822B809302018EB111
:103FF000877C8EB92EB1C7018C709927AC01440F14
:10400000551F440F551FC7018072992795958795B5
:1040100095958795842B822B8EB9A59884B330E132
:10402000E322FF24CFC2813009F0CFC2ED89E150F5
:10403000E33028F4F0E0EE5EFD4F808101C080E0C7
:10404000EB8DFC8D20819EA19223908390910201A3
:1040500097789093020190910201906490930201ED
:104060009EB1977C9EB9749AA598A59AED8DFE8D08
:1040700020819FA192239083ED8DFE8D20819BA1B5
:10408000922B9083EB8DFC8D20819AA1922B9083B3
:104090009091020197789093020120910201982F4C
:1040A000907C969596959695922B909302019EB151
:1040B000977C9EB92EB1982F9072892F90E095959C
:1040C000879595958795822B8EB9A59884B384BBE7
:1040D000ED8DFE8D90818FA189238083ED8DFE8DE6
:1040E00090818BA1892B8083872F992787FD9A95B3
:1040F000EB8DFC8D30812EA12323208320910201A2
:10410000277820930201209102012064209302016C
:104110002EB1277C2EB92EB12EB9A59824B324BB7D
:10412000ED8DFE8D30812FA123232083ED8DFE8D1B
:1041300030812BA1232B2083EB8DFC8D30812AA194
:10414000232B208320910201277820930201E09104
:1041500002019C01207C3327D90113E0B595A79576
:104160001A95E1F79C012370332705E0220F331FD6
:104170000A95E1F72A2B2E2B209302012EB1277CE2
:104180002EB9EEB19C012C703327D901AA0FBB1FA9
:10419000AA0FBB1F9C0120723327359527953595B3
:1041A00027952A2B2E2B2EB9A59824B380719927F9
:1041B000880F991F822B84BBED8DFE8D90818FA17E
:1041C00089238083ED8DFE8D90818BA1892B808347
:1041D000EB8DFC8D90818EA18923808380910201DB
:1041E00087788093020180910201806680930201AA
:1041F0008EB1877C8EB98EB18EB9A59884B384BBFD
:10420000ED8DFE8D90818FA189238083ED8DFE8DB4
:1042100090818BA1892B8083EB8DFC8D90818AA16D
:10422000892B8083809102018778809302012091FD
:104230000201CB01807C9927FC01B3E0F595E7955D
:10424000BA95E1F7CB018370992715E0880F991F84
:104250001A95E1F78E2B822B809302018EB1877C19
:104260008EB92EB1CB018C709927FC01EE0FFF1F88
:10427000EE0FFF1FCB018072992795958795959535
:1042800087958E2B822B8EB9A59884B36071772782
:10429000660F771F682B64BBED8DFE8D90818FA11B
:1042A00089238083ED8DFE8D90818BA1892B808366
:1042B000852F992787FD9A95EB8DFC8D30812EA156
:1042C000232320832091020127782093020120914B
:1042D00002012064209302012EB1277C2EB9749A2A
:1042E000A59824B324BBED8DFE8D30812FA123230F
:1042F0002083ED8DFE8D30812BA1232B2083EB8D30
:10430000FC8D30812AA1232B208320910201277864
:1043100020930201609102019C01207C3327F90166
:10432000A3E0F595E795AA95E1F79C012370332763
:10433000B5E0220F331FBA95E1F72E2B262B2093E1
:1043400002012EB1277C2EB96EB19C012C7033274F
:10435000F901EE0FFF1FEE0FFF1F9C0120723327A4
:1043600035952795359527952E2B262B2EB9A59873
:1043700024B380719927880F991F822B84BBED8D00
:10438000FE8D90818FA189238083ED8DFE8D90819C
:104390008BA1892B8083EB8DFC8D90818EA189234D
:1043A00080838091020187788093020180910201CD
:1043B0008066809302018EB1877C8EB9749AA5982D
:1043C00084B384BBED8DFE8D90818FA18923808382
:1043D000ED8DFE8D90818BA1892B8083EB8DFC8DE3
:1043E00090818AA1892B80838091020187788093B4
:1043F000020120910201CA01807C9927BC01E3E0FF
:1044000075956795EA95E1F7CA0183709927F5E0FC
:10441000880F991FFA95E1F7862B822B8093020172
:104420008EB1877C8EB92EB1CA018C709927BC01E0
:10443000660F771F660F771FCA01807299279595BF
:10444000879595958795862B822B8EB9A59884B3F1
:1044500040715527440F551F482B44BBED8DFE8DF1
:1044600090818FA189238083ED8DFE8D90818BA11A
:10447000892B8083EB8DFC8D90818EA18923808395
:10448000809102018778809302018091020180640B
:10449000809302018EB1877C8EB9739AA59884B3FC
:1044A00084BBED8DFE8D90818FA189238083ED8D5E
:1044B000FE8D90818BA1892B8083EB8DFC8D90816B
:1044C0008AA1892B808380910201877880930201E1
:1044D000409102018F2D99279C01207C3327B9013F
:1044E00023E0759567952A95E1F79C0123703327A2
:1044F00055E0220F331F5A95E1F7262B242B2093EA
:1045000002012EB1277C2EB94EB19C012C703327AD
:10451000B901660F771F660F771F9C012072332742
:104520003595279535952795262B242B2EB9A598BB
:1045300024B380719927880F991F822B84BBED8D3E
:10454000FE8D90818FA189238083ED8DFE8D9081DA
:104550008BA1892B8083809102018778809302014F
:1045600020910201C701807C9927AC01B3E05595E9
:104570004795BA95E1F7C7018370992715E0880F31
:10458000991F1A95E1F7842B822B809302018EB13B
:10459000877C8EB92EB1C7018C709927AC01440F6E
:1045A000551F440F551FC701807299279595879510
:1045B00095958795842B822B8EB9A59884B390E12D
:1045C000E922FF24EE0CFF1CAFC08250823008F0BD
:1045D000B9C00A851B8501501109288539852150EC
:1045E0003109CE010E944906E98DFA8D90818DA195
:1045F00089238083EB8DFC8D90818EA1892380831C
:10460000809102018778809302018091020180935A
:1046100002018EB1877C8EB98EB188638EB9A59860
:1046200084B384BBED8DFE8D90818FA1892380831F
:10463000ED8DFE8D90818BA1892B8083EB8DFC8D80
:1046400090818AA1892B8083809102018778809351
:104650000201409102018F2D99279C01207C332774
:1046600053E0369527955A95E1F7382F33703295F8
:10467000330F307E232B242B209302012EB1277C75
:104680002EB94EB1282F2C70522F550F550F9C016B
:10469000207233273695279536952795252B242B81
:1046A0002EB9A59894B38071880F892B84BBED8DAA
:1046B000FE8D90818FA189238083ED8DFE8D908169
:1046C0008BA1892B808380910201877880930201DE
:1046D00020910201C701807C992773E09695879508
:1046E0007A95E1F79E2D93709295990F907E892B84
:1046F000822B809302018EB1877C8EB92EB18E2DD4
:104700008C70382F330F330FC7018072992796951D
:10471000879596958795832B822B8EB9A59884B320
:104720009E2D9071E92EEE0CE82AE4BAED8DFE8DF7
:1047300090818FA189238083ED8DFE8D90818BA147
:10474000892B8083E98DFA8D908189A1892B8083C3
:10475000DF91CF911F910F91FF90EF900895EF920D
:10476000FF920F931F93CF93DF9383708093F60490
:104770002091E5043091E6044091E7045091E8046B
:10478000813059F0833049F03093EA042093E904F2
:104790005093EC044093EB0408C05093EA04409318
:1047A000E9043093EC042093EB04E091FA04F091D7
:1047B000FB04908180910605892380838091F90410
:1047C0008111D7C0E091F604E150E33040F4F0E00D
:1047D000EE0FFF1FEB5EFD4F8081918102C080E3F1
:1047E00090E1E091FC04F091FD04308120910705F7
:1047F0002323208320910201277820930201209116
:104800000201209302012EB1277C2EB92EB12EB9C0
:10481000A59824B324BBE091FE04F091FF043081FD
:104820002091080523232083E091FE04F091FF04EA
:10483000308120910405232B2083209102012778C9
:1048400020930201209102012066209302012EB1E3
:10485000277C2EB92EB12EB9A59824B324BBE091A4
:10486000FE04F091FF04308120910805232320836A
:10487000E091FE04F091FF04308120910405232B88
:104880002083E091FC04F091FD0430812091030528
:10489000232B20832091020127782093020120916D
:1048A0000201209302012EB1277C2EB92EB12EB920
:1048B000A598A59AE091FE04F091FF043081209123
:1048C000080523232083E091FE04F091FF0430814A
:1048D00020910405232B2083209102012778209327
:1048E000020120910201209302012EB1277C2EB9F2
:1048F0004EB19C012C703327B901660F771F660FEC
:10490000771F9C012072332735952795359527957C
:10491000262B242B2EB9A59824B380719927880FB4
:10492000991F822B84BBE091FE04F091FF049081DB
:104930008091080589238083E091FE04F091FF04B3
:10494000908180910405892B80830091EB04109164
:10495000EC04015011092091E9043091EA0421503E
:10496000310940E050E060E070E081EE94E00E94A8
:1049700049068091F904813009F075C0E091F60490
:10498000E150E33028F4F0E0EE5EFD4F808101C09D
:1049900080E0E091FC04F091FD04208190910705F6
:1049A00092239083909102019778909302019091C5
:1049B00002019064909302019EB1977C9EB9749A13
:1049C000A598A59AE091FE04F091FF0420819091B2
:1049D000080592239083E091FE04F091FF0420816A
:1049E00090910405922B9083E091FC04F091FD04DA
:1049F000208190910305922B9083909102019778EA
:104A00009093020120910201982F907C96959695A3
:104A10009695922B909302019EB1977C9EB92EB1F0
:104A2000982F9072892F90E0959587959595879509
:104A3000822B8EB9A59884B384BBE091FE04F091DB
:104A4000FF0490818091080589238083E091FE0412
:104A5000F091FF04908180910405892B808381EE81
:104A600094E00E9496338091F904823009F097C057
:104A70008091F604813089F060F0823031F083302B
:104A800079F4F8E2EF2EF12C0BC0A8E4EA2EF12C19
:104A900007C0E8E8EE2EF12C03C078EEE72EF12CEB
:104AA000E091FC04F091FD04908180910705892339
:104AB00080838091020187788093020180910201B6
:104AC0008064809302018EB1877C8EB98EB188613B
:104AD0008EB9A598A59AE091FE04F091FF0490810B
:104AE0008091080589238083E091FE04F091FF0402
:104AF000908180910405892B8083E091FC04F091E2
:104B0000FD04908180910305892B808380910201AF
:104B100087788093020120910201C701807C992748
:104B200053E0969587955A95E1F7822B8093020181
:104B30008EB1877C8EB98EB190E2E922FF24F69483
:104B4000E794F694E7948062E82AEEB8A59884B3D7
:104B500084BBE091FE04F091FF04908180910805F0
:104B600089238083E091FE04F091FF04908180917D
:104B70000405892B80830091EB041091EC04015013
:104B800011092091E9043091EA042150310940E0F3
:104B900050E060E070E081EE94E00E944906809170
:104BA000F904833009F091C08091F604813071F0EE
:104BB00050F0823029F0833059F4C0E6D0E008C0CC
:104BC000C0E0D0E005C0C0ECD0E002C0C0EAD0E058
:104BD000E091FC04F091FD04908180910705892308
:104BE0008083809102018778809302018091020185
:104BF0008064809302018EB1877C8EB98EB188610A
:104C00008EB9A598A59AE091FE04F091FF049081D9
:104C10008091080589238083E091FE04F091FF04D0
:104C2000908180910405892B8083E091FC04F091B0
:104C3000FD04908180910305892B8083809102017E
:104C400087788093020120910201CE01807C992710
:104C500033E0969587953A95E1F7822B8093020190
:104C60008EB1877C8EB98EB1C072DD27D695C7957F
:104C7000D695C795C82BCEB9A59884B384BBE091CF
:104C8000FE04F091FF0490818091080589238083C0
:104C9000E091FE04F091FF04908180910405892B3E
:104CA00080830091EB041091EC04015011092091D4
:104CB000E9043091EA042150310940E050E060E01D
:104CC00070E081EE94E00E944906DF91CF911F9140
:104CD0000F91FF90EF9008950F931F93CF93DF9361
:104CE0008C01C0E0D0E0F801EC0FFD1F6491662359
:104CF00041F08FEA92E00E94992D892B11F02196C4
:104D0000F2CFCE01DF91CF911F910F910895CF93F4
:104D1000DF930E946C26EC0164E772E08FEA92E078
:104D20000E949A2E8C0F9D1FDF91CF910895E1EE86
:104D3000F4E0A78DB0A19C9180A589238C9300C03D
:104D400000C000C00000A0E0B1E05C913C919CB1CB
:104D50004CB182B3A78DB0A16C9124A1262B2C93CA
:104D6000387168E0369F90011124352F30763295E6
:104D700036953770232B9870990F990F922B242F0B
:104D8000207326952695292B807290E0959587951E
:104D9000822B0895CF92DF92EF92FF920F931F9391
:104DA000CF93DF93C1EED4E0E98DFA8D20819DA1F0
:104DB00092239083EB8DFC8D20819EA19223908382
:104DC000E2E0F1E09081977890834081282F207C69
:104DD000522F569556955695982F937060E2969F50
:104DE00090011124252B242B20839EB1977C9EB902
:104DF0004EB1282F2C7094E0299FB0011124982FD8
:104E00009072292F30E03595279535952795262BDB
:104E1000242B2EB9A59894B38071880F892B84BB5D
:104E2000ED8DFE8D90818FA189238083ED8DFE8D88
:104E300090818BA1892B808301E011E0F8018081B2
:104E4000877880838DB1877C8DB99D98EB8DFC8DA3
:104E500090818AA1892B808383EC90E00197F1F700
:104E60000E949726C82ED12CE12CF12CFE2CED2C83
:104E7000DC2CCC240E949726C82AFE2CED2CDC2C9E
:104E8000CC240E949726C82AFE2CED2CDC2CCC24A6
:104E90000E949726E98DFA8D208199A1922B90830B
:104EA000F8019081986790839DB198639DB99D9A10
:104EB000A7019601282BCA01B901DF91CF911F915B
:104EC0000F91FF90EF90DF90CF90089590E0FC015C
:104ED0003197E231F10508F04EC08827EE57FF4FB9
:104EE0008F4F0C94B249809180008F7703C08091DE
:104EF00080008F7D80938000089580918000877F5F
:104F0000F9CF84B58F7702C084B58F7D84BD0895B5
:104F10008091B0008F7703C08091B0008F7D809327
:104F2000B0000895809190008F7707C08091900025
:104F30008F7D03C080919000877F809390000895BB
:104F40008091A0008F7707C08091A0008F7D03C063
:104F50008091A000877F8093A00008958091200118
:104F60008F7707C0809120018F7D03C08091200141
:104F7000877F8093200108951F93CF93DF93282F7D
:104F800030E0F901E25CF44F8491F901EC57F44F01
:104F9000D491F901EC51F44FC491CC23C1F0162FF8
:104FA00081110E946627EC2FF0E0EE0FFF1FE65301
:104FB000F44FA591B4919FB7F894111104C08C914E
:104FC000D095D82302C0EC91DE2BDC939FBFDF91FC
:104FD000CF911F910895CF93DF9390E0FC01EC57A0
:104FE000F44F2491FC01EC51F44F8491882361F13A
:104FF00090E0880F991FFC01EC5DF44FC591D491AE
:10500000FC01E653F44FA591B491611109C09FB71B
:10501000F8948881209582238883EC912E230BC0FD
:10502000623061F49FB7F8948881322F30958323E2
:105030008883EC912E2B2C939FBF06C08FB7F894DA
:10504000E8812E2B28838FBFDF91CF91089586337F
:1050500008F0865390917B00282F2870977F922B21
:1050600090937B008770806480937C0080917A00AD
:10507000806480937A0080917A0086FDFCCF8091D5
:1050800078002091790090E0922B08958F929F9262
:10509000AF92BF92CF92DF92EF92FF926B017C01B1
:1050A0000E9444354B015C01C114D104E104F104B8
:1050B000F1F00E944435DC01CB0188199909AA0955
:1050C000BB09883E9340A105B10570F321E0C21AE7
:1050D000D108E108F10888EE880E83E0981EA11C33
:1050E000B11CC114D104E104F10419F7DDCFFF9024
:1050F000EF90DF90CF90BF90AF909F908F900895EA
:10510000E091FA04F091FB04908180910205892BD3
:105110008083E091FE04F091FF049081809104056A
:10512000892B8083E0910005F091010590818091A9
:105130000505892B808380910A05882371F060E042
:105140000E94BC2762E070E080E090E00E94462868
:1051500061E080910A050E94BC27E091FA04F09179
:10516000FB0490818091060589238083E091FC04F3
:10517000F091FD04908180910705892380838091BF
:1051800002018778809302018091020180930201DD
:105190008EB1877C8EB98EB18EB9A59884B384BB4D
:1051A000E091FE04F091FF0490818091080589232D
:1051B0008083E091FE04F091FF04908180910405CA
:1051C000892B808383E0E091FE04F091FF0420812D
:1051D0009091080592239083E091FE04F091FF04E2
:1051E000208190910405922B9083815061F7E0918A
:1051F000FA04F091FB04908180910205892B808351
:1052000008954F925F926F927F928F929F92AF928A
:10521000BF92CF92DF92EF92FF920F931F93CF93A3
:10522000DF93C0906E03D0906F03E0907003F09016
:10523000710380916A0390916B03A0916C03B0910C
:105240006D03C81AD90AEA0AFB0A609172037091C9
:10525000730380917403909175039B01AC010E94CC
:1052600091484B015C0160917A0370917B038091BE
:105270007C0390917D039B01AC010E94CA499B0174
:10528000AC01C501B4010E94364A0E94A84AC1146B
:10529000D104E104F104F9F462307105810591054E
:1052A0000CF092C010928203109283031092840338
:1052B000109285031092720310927303109274037C
:1052C000109275031092920310929303109294031C
:1052D000109295032AC1009192031091930320919B
:1052E0009403309195031C141D041E041F040CF537
:1052F000101611061206130654F46C157D058E0562
:105300009F0564F52091600321115EC027C001153F
:1053100011052105310509F457C06C157D058E0571
:105320009F050CF051C080916003882309F44CC0A4
:105330003CC0101611061206130614F5002711279B
:1053400098010C191D092E093F0960177107820782
:10535000930724F4209160032223B1F19B01AC0157
:1053600088279927DC01821B930BA40BB50B809334
:10537000920390939303A0939403B093950324C056
:105380000115110521053105F9F0882499245401EE
:105390008C189D08AE08BF08681579058A059B051D
:1053A0009CF48091600381110FC030952095109579
:1053B00001951F4F2F4F3F4F00939203109393037C
:1053C00020939403309395038090920390909303DD
:1053D000A0909403B090950381149104A104B104AA
:1053E000D1F48091960390919703A0919803B09186
:1053F000990380939A0390939B03A0939C03B0938B
:105400009D0381E01C141D041E041F040CF080E0A9
:10541000809360034AC0C0909A03D0909B03E090B1
:105420009C03F0909D03A7019601C701B6010E945D
:10543000CA492B013C01C501B4010E94324820E059
:1054400030E040E850E40E94914820E030E040E83D
:105450005FE30E94CA499B01AC01C301B2010E94F3
:10546000364A9B01AC01C701B6010E94C949D62F3B
:10547000C72F6C01E0909E03F0909F030091A00362
:105480001091A1039701A8010E94DE4A18161CF48E
:10549000ED2EFC2E8601C701D80180939A039093CC
:1054A0009B03A0939C03B0939D033FEF831A930A41
:1054B000A30AB30A8092920390929303A09294035A
:1054C000B0929503C0909A03D0909B03E0909C0308
:1054D000F0909D03C701B6010E94AF4A609382031A
:1054E000709383038093840390938503A7019601AF
:1054F00060E074E284E799E40E94364A60937203A4
:1055000070937303809374039093750320916003E9
:1055100021110BC0DC01CB01B05880937203909332
:105520007303A0937403B0937503DF91CF911F9120
:105530000F91FF90EF90DF90CF90BF90AF909F9032
:105540008F907F906F905F904F9008954F925F92F1
:105550006F927F928F929F92AF92BF92CF92DF9283
:10556000EF92FF926B017C0120E030E0A9010E94E4
:105570002B4887FF04C0F7FAF094F7F8F094809076
:105580007A0390907B03A0907C03B0907D03A701E9
:105590009601C501B4010E942B48882309F456C026
:1055A000609192037091930380919403909195037D
:1055B0000E9432482B013C01A7019601C501B401AC
:1055C0000E94364A9B01AC01C301B2010E9491487E
:1055D0000E94A84A6093920370939303809394036C
:1055E00090939503A701960160E070E080E090E45D
:1055F0000E94364A0E94E94A26E53EE04DE25FE31A
:105600000E94914820E034E244E759E40E94914826
:1056100060939603709397038093980390939903F4
:10562000C0927A03D0927B03E0927C03F0927D03D8
:10563000FF90EF90DF90CF90BF90AF909F908F90B2
:105640007F906F905F904F900C940129FF90EF90A6
:10565000DF90CF90BF90AF909F908F907F906F9092
:105660005F904F9008952F923F924F925F926F926A
:105670007F928F929F92AF92BF92CF92DF92EF92E2
:10568000FF920F931F93CF93DF9300D000D0CDB73D
:10569000DEB79E838D834B013A016901802F21E0A3
:1056A00030E029014C185D08002711270C191D094D
:1056B000000F111FAA24A394B12C22242394312C6F
:1056C000982F94709983A82FA270AA83B82FB870CE
:1056D000BB8381708C83C50101978C159D050CF0EF
:1056E000A7C057FC07C091E0C91AD1080E5F1F4F31
:1056F000400E511EA2E02A0E311C420C531CB981EF
:10570000BB2311F1AD81BE81ED91FC911197008415
:10571000F185E02D9701A601460D571DB4016A0DD4
:105720007B1DCD011995AD81BE81ED91FC91119745
:105730000084F185E02D9701A3014A0D5B1DB601A0
:10574000680D791DCD011995BA81BB2311F1AD8189
:10575000BE81ED91FC9111970084F185E02D9701B8
:10576000A3014C195D09B4016A0D7B1DCD0119958A
:10577000AD81BE81ED91FC9111970084F185E02D02
:105780009701A3014A195B09B601680D791DCD0186
:105790001995BB81BB2311F1AD81BE81ED91FC91C7
:1057A00011970084F185E02D9701A3014A0D5B1D3F
:1057B000B4016C197D09CD011995AD81BE81ED91C2
:1057C000FC9111970084F185E02D9701A601460D0B
:1057D000571DB4016A197B09CD011995BC81B1111E
:1057E00004C08FEFA81AB80A76CFAD81BE81ED91C3
:1057F000FC9111970084F185E02D9701A3014A19CE
:105800005B09B4016C197D09CD011995AD81BE818B
:10581000ED91FC9111970084F185E02D9701A30192
:105820004C195D09B4016A197B09CD011995D9CFCD
:1058300026960FB6F894DEBF0FBECDBFDF91CF9195
:105840001F910F91FF90EF90DF90CF90BF90AF909E
:105850009F908F907F906F905F904F903F902F9090
:1058600008952F923F924F925F926F927F928F9204
:105870009F92AF92BF92CF92DF92EF92FF920F93DF
:105880001F93CF93DF93CDB7DEB728970FB6F89469
:10589000DEBF0FBECDBF5C013B014A0138872F83BD
:1058A000FC82EB82260181E090E06C01C21AD30AEF
:1058B000C9019195819591099C01220F331F3A836B
:1058C0002983170133E0230E311CEE24E394F12CDD
:1058D000802F81708D8302700E83C70101972F8105
:1058E0003885821793070CF078C0D7FC0BC0215085
:1058F000310938872F8389819A8102969A83898317
:10590000C80ED91EC701880F991F0196C80ED91E4F
:105910009D81992359F12F813885220F331F2F5FE5
:105920003F4FAB81BC812A0F3B1FD501ED91FC910C
:105930000484F585E02D8201A4018F819885481BA0
:10594000590BB3016E0D7F1DC5011995D501ED9160
:10595000FC910484F585E02D9101A4014E195F09A5
:105960006F817885660D771DC5011995BE81B111CE
:1059700007C09FEFE91AF90AA2E02A0E311CADCF49
:105980002F813885220F331F2F5F3F4F8B819C81E2
:10599000280F391FD501ED91FC910484F585E02D88
:1059A0008201A4018F819885481B590BB3016E19A0
:1059B0007F09C5011995D501ED91FC910484F58508
:1059C000E02D9101A4014E195F09B3018F819885E3
:1059D000681B790BC5011995CCCF28960FB6F894A2
:1059E000DEBF0FBECDBFDF91CF911F910F91FF9012
:1059F000EF90DF90CF90BF90AF909F908F907F906F
:105A00006F905F904F903F902F900895CF92DF92CC
:105A1000EF92FF920F931F93CF93DF936C017A0164
:105A20008B01C0E0D0E0CE15DF0581F0D8016D918B
:105A30008D01D601ED91FC910190F081E02DC60120
:105A40001995892B11F02196EECF7E01C701DF91C8
:105A5000CF911F910F91FF90EF90DF90CF9008951D
:105A6000FC01538D448D252F30E0842F90E0821B64
:105A7000930B541710F0CF96089501970895FC01E9
:105A8000918D828D981761F0828DDF01A80FB11D75
:105A90005D968C91928D9F5F9F73928F90E0089599
:105AA0008FEF9FEF0895FC01918D828D981731F053
:105AB000828DE80FF11D858D90E008958FEF9FEFA7
:105AC0000895FC01918D228D892F90E0805C9F4F7D
:105AD000821B91098F73992708958FEA92E00E94A3
